:0C0000002BC0FECFFDCFFCCFFBCFFACF12
:10000C00F9CFF8CFF7CFF6CFF5CFF4CFF3CF4CC075
:10001C00F1CFF0CFEFCFEECFEDCFECCFEBCFEACFF0
:10002C00E9CFE8CFE7CFE6CF0000000000000000EA
:10003C000100F921EA6B335BDB29FB7B02000A0030
:10004C00040034000B00FC023E000000F894EE2784
:10005C00EFBBF1E0F5BFE5BF8DE0A2E0BB27ED9370
:10006C008A95E9F780E094E0A0E0B1E0ED93019788
:10007C00E9F7EAE4F0E085919591009761F0A5919C
:10008C00B59105901590BF01F00105900D92019767
:10009C00E1F7FB01F0CFE0E0EEBBEFEFEDBFE4E00A
:1000AC00EEBFC0E0D2E0BDC10A921A92FA926A93F6
:1000BC007A938A939A93AA93BA93EA93FA93EFB7A3
:1000CC00EA93E3E9B8D2BDD218F4AAEFB2E0C1D2F8
:1000DC002ED2C5D218F4A8EFB2E0BBD2E991EFBF93
:1000EC00F991E991B991A991999189917991699134
:1000FC00F990199009901895AA93E881E0937C00E7
:10010C008BE18A95F1F7E0917A00E064E0937A0054
:10011C00E0917A00E071E1F3E0917A00E061E09324
:10012C007A00E0917800F091790021960895EF978C
:10013C002197E8D4A0E0E0DF8F01ED2D98D29DD27D
:10014C00008311837ED208F443C030E03E3140F48A
:10015C0097D29DD2E32F8BD29DD29FD23F5FF6CF09
:10016C0030E03E3188F4232F2E3160F489D29AD2BC
:10017C0038F486D2A5D28BD2A7D2ADD2A5D2ADD22D
:10018C002F5FF2CF3F5FEDCFACD2343120F478D279
:10019C00B2D23F5FFACFC4D2CDD2AF014337E3E046
:1001AC005E0730F4E3E7F3E0E41BF50BAF0102C0AC
:1001BC0040E050E0FA0166277727AFD3A0E8B8E417
:1001CC0088E490E4D8D3A2E0B2E06ED3ED93FC9334
:1001DC00BAD2BED248F07394EAE0E71520F4EBE013
:1001EC007E2EBB24F29A08C0B394EAE0EB1520F4FF
:1001FC00EBE0BE2E7724F298A2E07EDF8F01093768
:10020C00E3E01E0730F4E8E7F3E0E01BF10B8F01AD
:10021C0002C000E010E0ED2D9FD22FD2008311839D
:10022C0010D280F130E03E3138F42AD230D2E32FB4
:10023C0093D251D23F5FF7CF30E03E3188F4232F79
:10024C002E3160F41DD22ED238F41AD239D21FD2EC
:10025C003BD241D239D241D22F5FF2CF3F5FEDCFAB
:10026C0040D2343120F40CD246D23F5FFACF58D270
:10027C00AFEFB7E983E490E47ED35CD2E09306025F
:10028C00F09307026FD264D248F05394EAE0E5157C
:10029C0020F4EBE05E2E9924F09A08C09394EAE0E7
:1002AC00E91520F4EBE09E2E5524F098ED2D5FD24D
:1002BC00E4D1FF93EF93A3E01FDFAF91BF91ED93D8
:1002CC00FC93BFD158F130E03E3138F4D9D1DFD1B5
:1002DC00E32F4DD200D23F5FF7CF30E03E3188F4B0
:1002EC00232F2E3160F4CCD1DDD138F4C9D1E8D133
:1002FC00CED1EAD1F0D1E8D1F0D12F5FF2CF3F5F70
:10030C00EDCFEFD1343120F4BBD1F5D13F5FFACF33
:10031C0007D233D2E0930002F09301023CD218D200
:10032C0048F06394EAE0E61520F4EBE06E2EAA2484
:10033C00F39A08C0A394EAE0EA1520F4EBE0AE2EA1
:10034C006624F398ED2D2CD298D1FF93EF93A1E076
:10035C00D3DEAF91BF91ED93FC9373D180F130E07C
:10036C003E3138F48DD193D1E32F1AD2B4D13F5F03
:10037C00F7CF30E03E3188F4232F2E3160F480D15A
:10038C0091D138F47DD19CD182D19ED1A4D19CD174
:10039C00A4D12F5FF2CF3F5FEDCFA3D1343120F446
:1003AC006FD1A9D13F5FFACFBBD1E7D1E093040263
:1003BC00F0930502E0E0E093FA02E093FB02F6D141
:1003CC00C7D148F04394EAE0E41520F4EBE04E2E5C
:1003DC008824F19A08C08394EAE0E81520F4EBE055
:1003EC008E2E4424F198D394EEE1DE1608F0DD2431
:1003FC00F29906C0F09904C0F19902C0F39B07C0B2
:10040C00449AE0E0E093F802E093F90203C027D1AC
:10041C0008F04498AAE0B0E010D27BD3EF96279670
:10042C000895E0E8E0936100E0E0E0936100E8E229
:10043C00E4B9E0E0E5B9E0E1E7B9E0E0E8B9E4E02F
:10044C00EAB9E0E0EBB9E4BDE5BDE6BDE7BDE8BD6A
:10045C00E0938000E1E0E0938100E1ECECD0E0E09F
:10046C00E0938700E0938600E0938900E093880096
:10047C00E0938B00E0938A00E093B600E093B00029
:10048C00E093B100E093B200E093B300E093B400CA
:10049C00E0936E00E1E0E0936F00E0E0E093700029
:1004AC00E0936900EDBBE0936800E093C100E0E8E5
:1004BC00E0BF81D1E0937F00E0E0E0937E00E09329
:1004CC007C00E3E8E0937A0076D1ECBDE0E0E093C9
:1004DC00BC00789444982BDEFECFFFCFAA932697CE
:1004EC001A9310E0163028F46AD1E0E0EC931F5F09
:1004FC00F9CFE985E983E885EA83EF81EB8310E0A6
:10050C00EA85F0E03197A12FB0E0AE17BF073CF4BD
:10051C0056D1EC91EA93A0E073D01F5FF1CF4FD18D
:10052C00EC91EA93A1E06CD018812B960895EAD255
:10053C0051E010E000E030E0C394EC2DE150A52F29
:10054C00BAD25E2FE8E0EC1518F4E1E0CE2E51E0C3
:10055C0022D13AD109F034601ED13FD14BD109F0F0
:10056C00386019D14AD14CD155D109F0306113D131
:10057C0053D109F00061E7D027D109F00062E3D034
:10058C002CD148D109F00860DED037D139D132D125
:10059C0009F00460D8D040D109F0016007D144D1F2
:1005AC0009F0306203D119D125D109F03064FED0A5
:1005BC0024D126D12FD109F03068F8D02DD109F0F3
:1005CC003260D0D031D109F03160CCD006D122D1FB
:1005DC0009F00064C7D011D113D10CD109F0006817
:1005EC00C1D01AD109F00260EFEFE51B5E2FE3E0FA
:1005FC00EA933A930A93A52F71DF8BD2269608952E
:10060C00AA931A9310E0183070F4EA81E078E0387D
:10061C0011F42B9A01C02B98EA81EE0FEA832D9AE4
:10062C002D981F5FF0CFE981E03011F05A9A5A985B
:10063C00188123960895E0938500E0E8E093840008
:10064C000895A091FA02B091FB02A83CE0E0BE072D
:10065C000895ED91FD913196FE93EE930895A0913E
:10066C00F802B091F902A43FE1E0BE070895ACEBAB
:10067C00B2E0F0E0EE0FFF1F0895EA0FFB1F0895A4
:10068C00E32FF0E0DE011696EE0FFF1F0895F5DF65
:10069C000F010895AE0FBF1F089530D2D001ED9316
:1006AC00FC930895F7DF0D901C90E22FF0E0DE0133
:1006BC001696EE0FFF1FEEDF21D2E015F10508951F
:1006CC00E9DF4D915C91DCCFE22FF0E0DE01169674
:1006DC00EE0FFF1F0895DEDFE0CFCFDF40835183A5
:1006EC000895E0E0DE01AE5BBF4FED93ED93ED932B
:1006FC00EC933AE00895CEDF01D2DE01AE5BBF4F42
:10070C000D901D908D919C91D00166277727C6D1B5
:10071C00DE01AE5BBF4FED93FD936D937C9308951B
:10072C00FE01EE5BFF4F0190119061917081F00121
:10073C00F2D00895DF01CB01E0E0F0E060E271E47B
:10074C0068D1B2D00895A0910202B091030208952D
:10075C00AD32E1E0BE070895A0E8B2E0F0E0EE0FA4
:10076C00FF1F0895A0910602B09107020895A4E41A
:10077C00B2E0F0E0EE0FFF1F0895A0E0B0E089EBCF
:10078C0093E4F9D0DF01CB01E0E0F0E060E276E445
:10079C0040D18AD00895A0910002B0910102089531
:1007AC00A8E0B2E0F0E0EE0FFF1F0895A091040264
:1007BC00B09105020895E0E0E0937B000895E12FED
:1007CC00F0E0DE01119666CFE8EEF3E081D12E2F3A
:1007DC0010910603E52FE1230895E4E6F0E078D1CB
:1007EC00DF01EAE0F0E087D12E2FF0E0E450FD4F7E
:1007FC0010810895E52FE1230895EAE0F0E00895D3
:10080C0067D1DF01FADF77D12E2FF0E0E450FD4FF6
:10081C00108108951460EECFF0DF6DD12E2FF0E033
:10082C00E450FD4F1081E6CFE8EEF3E051D12E2FCE
:10083C00F0E0E450FD4F1081DDCF109639F080EDE3
:10084C0097E00197F1F7A8951197C9F708955523EB
:10085C0042F4503811F4E0FF04C03196691F791F3F
:10086C006BF050E8572711F45F9373C05F3F31F082
:10087C00660F000C57956795752F08955F930020B0
:10088C000AF073C06CC050E8192E1522880F991FFE
:10089C009527550F879550E8072E0522660F771F71
:1008AC007527550F67950895689401C0E8945F9378
:1008BC00F2DF703818F07F3F08F44BC056E1571B3D
:1008CC00AAF4519558300EF4593030F0EFEFFFEF99
:1008DC006FEF7FE777F91AC077275523B9F0EE0F42
:1008EC00FF1F661F771F5A95D1F710C07727583016
:1008FC0028F0EF2FF62F672F5850F9CF552331F0F2
:10090C0076956795F795E7955A95D1F700200AF4F7
:10091C00CAD05F910895689401C0E8943097604004
:10092C007040B1F0002426F0772312F40094BBD071
:10093C00172E7EE1112032F07A95EE0FFF1F661F05
:10094C00111CF9CFEF2FF62F612D5F938ADF5F918A
:10095C000895EE27FF27662777275F910895EFEF1D
:10096C00FFEF6FE77FEF5F910895EFEFFFEF6FE71A
:10097C007FE75F9108955F9386DF703851F390386D
:10098C0041F301240894791F23F41CF300203AF35B
:10099C00ECCF0F921F932F933F934F931127222746
:1009AC009927689FA0018F9F302D410D591F6B9F78
:1009BC00300D411D591F8E9F27D0BF9F25D06A9F98
:1009CC0023D0BE9F1DD0AF9F1BD0AE9F110D291FF2
:1009DC00391F491F591FE32FF42F652F522F4F91A9
:1009EC003F912F911F910F9066232AF0550FEE1F08
:1009FC00FF1F661F02C073954BF229DF5F910895AC
:100A0C00100D211D391F02C0200D311D491F591F0A
:100A1C0008955F9338DF703821F411200AF49FCFCA
:100A2C00A4CF903809F495CF01240894970B1BF4AC
:100A3C00D4F30020F3CF792F1F932F933F934F9331
:100A4C0011241127222733274427552790E2AE176C
:100A5C00BF078607410730F0AE1BBF0B860B410B5F
:100A6C00089401C08894551F221F331F111CAA1F04
:100A7C00BB1F881F441F9A9551F7F901612D4F91A7
:100A8C003F912F911F91662332F0550FEE1FFF1FE0
:100A9C00661F7A9543F2DBDE5F910895EA0FFB1F28
:100AAC00681F791F0895F09560957095E195FF4F3B
:100ABC006F4F7F4F0895EE230E2EEA2F19F0EE0F95
:100ACC000A94E9F708956F2F660F660B762F089539
:100ADC000024112490E1AA0FBB1F001C111C0E1A3C
:100AEC001F0A18F40E0E1F1E01C0A1609A9599F7EB
:100AFC00FD01D0010895ECDFFD010895ED91FC910D
:100B0C00119708955A934A933A932A931A930A93F6
:100B1C0008955D814C813B812A811981088108955A
:00000001FF
