:0C0000002EC0FECFFDCFFCCFFBCFFACF0F
:10000C00F9CFF8CFF7CFF6CFF5CFF4CFF3CF4FC072
:10001C00F1CFF0CFEFCFEECFEDCFECCFEBCFEACFF0
:10002C00E9CFE8CFE7CFE6CF0000000000000000EA
:10003C0000000100F921EA6B335BDB29FB7B0A0032
:10004C00040034000100FA023E000A00FB024000EA
:10005C000000F894EE27EFBBF1E0F5BFE5BF8DE0B3
:10006C00A2E0BB27ED938A95E9F780E094E0A0E04D
:10007C00B1E0ED930197E9F7EAE4F0E08591959111
:10008C00009761F0A591B59105901590BF01F00115
:10009C0005900D920197E1F7FB01F0CFE0E0EEBB8C
:1000AC00EFEFEDBFE4E0EEBFC0E0D2E08CC10A920E
:1000BC001A92FA926A937A938A939A93AA93BA931E
:1000CC00EA93FA93EFB7EA93E3E98CD291D238F43E
:1000DC00A8EFB2E0ED91FD913196FE93EE93F9D13C
:1000EC00E991EFBFF991E991B991A9919991899110
:1000FC0079916991F990199009901895AA93E881D2
:10010C00E0937C008BE18A95F1F7E0917A00E06452
:10011C00E0937A00E0917A00E071E1F3E0917A00EB
:10012C00E061E0937A00E0917800F09179002196FB
:10013C000895EF9721979ED4ED2D62D267D2FF934D
:10014C00EF93A2E0DBDFAF91BF9163D251D258F1B4
:10015C0030E03E3140F460D266D2E32F51D266D209
:10016C0068D23F5FF6CF30E03E3188F4232F2E313A
:10017C0060F452D261D238F44FD26CD254D26ED2D7
:10018C0074D26CD274D22F5FF2CF3F5FEDCF73D2AB
:10019C00343120F441D279D23F5FFACF8BD2E09345
:1001AC000602F09307029DD248F07394EAE0E7153B
:1001BC0020F4EBE07E2EBB24F29A08C0B394EAE064
:1001CC00EB1520F4EBE0BE2E7724F298ED2D91D2B6
:1001DC001DD2FF93EF93A0E091DFAF91BF9119D2A5
:1001EC0007D250F130E03E3138F416D21CD2E32F56
:1001FC0080D23BD23F5FF7CF30E03E3188F4232FE3
:10020C002E3160F409D218D238F406D223D20BD294
:10021C0025D22BD223D22BD22F5FF2CF3F5FEDCF43
:10022C002AD2343120F4F8D130D23F5FFACF42D207
:10023C00E0930202F093030254D248F05394EAE0A4
:10024C00E51520F4EBE05E2E9924F09A08C0939407
:10025C00EAE0E91520F4EBE09E2E5524F098ED2D04
:10026C004ED2D4D1FF93EF93A3E048DFAF91BF916F
:10027C00D0D1BED150F130E03E3138F4CDD1D3D114
:10028C00E32F3DD2F2D13F5FF7CF30E03E3188F41F
:10029C00232F2E3160F4C0D1CFD138F4BDD1DAD1B7
:1002AC00C2D1DCD1E2D1DAD1E2D12F5FF2CF3F5F04
:1002BC00EDCFE1D1343120F4AFD1E7D13F5FFACFAC
:1002CC00F9D1E0930002F09301021FD2AD32E1E0CC
:1002DC00BE0748F06394EAE0E61520F4EBE06E2EDE
:1002EC00AA24F39A08C0A394EAE0EA1520F4EBE000
:1002FC00AE2E6624F398ED2D0DD288D1FF93EF939B
:10030C00A1E0FCDEAF91BF9184D172D178F130E0E5
:10031C003E3138F481D187D1E32FFCD1A6D13F5F98
:10032C00F7CF30E03E3188F4232F2E3160F474D1B6
:10033C0083D138F471D18ED176D190D196D18ED122
:10034C0096D12F5FF2CF3F5FEDCF95D1343120F4B2
:10035C0063D19BD13F5FFACFADD1E0930402F09310
:10036C000502E0E0E093F802E093F902D9D1AD3256
:10037C00E1E0BE0748F04394EAE0E41520F4EBE03A
:10038C004E2E8824F19A08C08394EAE0E81520F4F4
:10039C00EBE08E2E4424F198D394EEE1DE1608F0B7
:1003AC00DD24F29906C0F09904C0F19902C0F39BC8
:1003BC0002C0449A01C04498AAE0B0E0FBD161D3DA
:1003CC00EF9627960895E0E8E0936100E0E0E09373
:1003DC006100E8E2E4B9E0E0E5B9E0E1E7B9E0E0CA
:1003EC00E8B9E4E0EAB9E0E0EBB9E4BDE5BDE6BDAF
:1003FC00E7BDE8BDE0938000E1E0E0938100E1EC33
:10040C00F1D0E0E0E0938700E0938600E093890070
:10041C00E0938800E0938B00E0938A00E093B600B1
:10042C00E093B000E093B100E093B200E093B3002E
:10043C00E093B400E0936E00E1E0E0936F00E0E045
:10044C00E0937000E0936900EDBBE0936800E093EB
:10045C00C100E0E8E0BF69D1E0937F00E0E0E09309
:10046C007E00E0937C00E3E8E0937A005ED1ECBD83
:10047C00E0E0E093BC00789444985BDEFECFFFCFC5
:10048C00AA9326971A9310E0163028F452D1E0E084
:10049C00EC931F5FF9CFE985E983E885EA83EF8167
:1004AC00EB8310E0EA85F0E03197A12FB0E0AE17B6
:1004BC00BF073CF43ED1EC91EA93A0E078D01F5FEB
:1004CC00F1CF37D1EC91EA93A1E071D018812B9642
:1004DC000895D0D251E010E000E030E0E091FA0253
:1004EC00EF5FE093FA02E150A52FA2D25E2FA0910C
:1004FC00FA02A93020F0E1E0E093FA0251E005D1D4
:10050C001DD109F0346001D124D130D109F038600B
:10051C00FCD02FD131D13AD109F03061F6D038D19D
:10052C0009F000613DD10AD109F0006239D111D135
:10053C002DD109F0086034D11CD11ED117D109F08E
:10054C0004602ED125D109F00160EAD0F7D009F072
:10055C003062E6D0FED00AD109F03064E1D009D186
:10056C000BD114D109F03068DBD012D109F0326014
:10057C001CD1E4D009F0316018D1EBD007D109F0CF
:10058C00006413D1F6D0F8D0F1D009F000680DD189
:10059C00FFD009F00260EFEFE51B5E2FE3E0EA937A
:1005AC003A930A93A52F6CDF6CD226960895AA93E2
:1005BC001A9310E0183070F4EA81E078E03811F406
:1005CC002B9A01C02B98EA81EE0FEA832D9A2D9875
:1005DC001F5FF0CFE981E03011F05A9A5A981881D8
:1005EC0023960895E0938500E0E8E0938400089555
:1005FC00A091F802B091F902A83CE0E0BE07089582
:10060C00ACEBB2E0F0E0EE0FFF1F0895EA0FFB1F1A
:10061C000895ED93FC930895E32FF0E0DE01169618
:10062C00EE0FFF1F0895F2DF0F010895AE0FBF1FED
:10063C0008951CD2D001EDCFF9DF0D901C90E22F64
:10064C00F0E0DE011696EE0FFF1FF0DF0FD2E01583
:10065C00F1050895EBDF4D915C91DECFE22FF0E0D8
:10066C00DE011696EE0FFF1F0895E0DFE2CFCEDF1E
:10067C00408351830895E0E0DE01AE5BBF4FED9304
:10068C00ED93ED93EC933AE00895D0DFEFD1DE01DA
:10069C00AE5BBF4F0D901D908D919C91D001662744
:1006AC007727B9D1DE01AE5BBF4FED93FD936D9310
:1006BC007C930895FE01EE5BFF4F019011906191C8
:1006CC007081F001E5D0A0E0B0E089EB93E410D1AB
:1006DC00DF01CB01E0E0F0E060E276E457D1A1D09D
:1006EC000895A0910602B0910702A53FE1E0BE0774
:1006FC000895A0E8B2E0F0E0EE0FFF1F0895A4E427
:10070C00B2E0F0E0EE0FFF1F0895A0910002B0914F
:10071C0001020895A8E0B2E0F0E0EE0FFF1F08958B
:10072C00A0910402B09105020895E0E0E0937B00F3
:10073C000895E12FF0E0DE01119678CFE8EEF3E0BA
:10074C007FD12E2FF0E0E550FD4F1081E52FE123F6
:10075C000895E4E6F0E074D1DF01EAE0F0E083D143
:10076C002E2FF0E0E550FD4F10810895E52FE12389
:10077C000895EAE0F0E0089563D1DF01FADF73D168
:10078C002E2FF0E0E550FD4F108108951460EECF50
:10079C00F0DF69D12E2FF0E0E550FD4F1081E6CF50
:1007AC00A0910202B09103020895A0910602B091AB
:1007BC0007020895109639F080ED97E00197F1F754
:1007CC00A8951197C9F70895552342F4503811F4A0
:1007DC00E0FF04C03196691F791F6BF050E8572772
:1007EC0011F45F9373C05F3F31F0660F000C5795A7
:1007FC006795752F08955F9300200AF073C06CC045
:10080C0050E8192E1522880F991F9527550F87959B
:10081C0050E8072E0522660F771F7527550F679531
:10082C000895689401C0E8945F93F2DF703818F073
:10083C007F3F08F44BC056E1571BAAF45195583032
:10084C000EF4593030F0EFEFFFEF6FEF7FE777F9F1
:10085C001AC077275523B9F0EE0FFF1F661F771FBD
:10086C005A95D1F710C07727583028F0EF2FF62F74
:10087C00672F5850F9CF552331F076956795F7953A
:10088C00E7955A95D1F700200AF4CAD05F910895E4
:10089C00689401C0E894309760407040B1F0002437
:1008AC0026F0772312F40094BBD0172E7EE1112092
:1008BC0032F07A95EE0FFF1F661F111CF9CFEF2F48
:1008CC00F62F612D5F938ADF5F910895EE27FF2746
:1008DC00662777275F910895EFEFFFEF6FE77FEFC4
:1008EC005F910895EFEFFFEF6FE77FE75F9108955A
:1008FC005F9386DF703851F3903841F301240894EC
:10090C00791F23F41CF300203AF3ECCF0F921F93C2
:10091C002F933F934F93112722279927689FA0016C
:10092C008F9F302D410D591F6B9F300D411D591F4D
:10093C008E9F27D0BF9F25D06A9F23D0BE9F1DD0EE
:10094C00AF9F1BD0AE9F110D291F391F491F591F77
:10095C00E32FF42F652F522F4F913F912F911F9121
:10096C000F9066232AF0550FEE1FFF1F661F02C063
:10097C0073954BF229DF5F910895100D211D391FDE
:10098C0002C0200D311D491F591F08955F9338DF98
:10099C00703821F411200AF49FCFA4CF903809F4B9
:1009AC0095CF01240894970B1BF4D4F30020F3CFBC
:1009BC00792F1F932F933F934F93112411272227A5
:1009CC0033274427552790E2AE17BF078607410708
:1009DC0030F0AE1BBF0B860B410B089401C0889402
:1009EC00551F221F331F111CAA1FBB1F881F441F1A
:1009FC009A9551F7F901612D4F913F912F911F91CC
:100A0C00662332F0550FEE1FFF1F661F7A9543F2D7
:100A1C00DBDE5F910895EA0FFB1F681F791F0895B5
:100A2C00F09560957095E195FF4F6F4F7F4F08954E
:100A3C00EE230E2EEA2F19F0EE0F0A94E9F7089523
:100A4C000024112490E1AA0FBB1F001C111C0E1ACC
:100A5C001F0A18F40E0E1F1E01C0A1609A9599F77B
:100A6C00FD01D0010895ECDFFD010895ED91FC919D
:100A7C00119708955A934A933A932A931A930A9387
:100A8C0008955D814C813B812A81198108810895EB
:00000001FF
