:060000002BC0FECFFDCF76
:10000600FCCFFBCFFACFF9CFF8CFF7CFF6CFF5CFAE
:10001600F4CFF3CF4CC0F1CFF0CFEFCFEECFEDCF93
:10002600ECCFEBCFEACFE9CFE8CFE7CFE6CF0000C2
:100036000000000000000100F921EA6B335BDB29B8
:10004600FB7B02000A00040034000B00FE023E00A7
:100056000000F894EE27EFBBF1E0F5BFE5BF8DE0B9
:10006600A2E0BB27ED938A95E9F780E094E0A0E053
:10007600B1E0ED930197E9F7EAE4F0E08591959117
:10008600009761F0A591B59105901590BF01F0011B
:1000960005900D920197E1F7FB01F0CFE0E0EEBB92
:1000A600EFEFEDBFE4E0EEBFC0E0D2E0BDC10A92E3
:1000B6001A92FA926A937A938A939A93AA93BA9324
:1000C600EA93FA93EFB7EA93E3E936D33BD318F40E
:1000D600AAEFB2E03FD32ED243D318F4A8EFB2E092
:1000E60039D3E991EFBFF991E991B991A991999124
:1000F600899179916991F990199009901895AA9327
:10010600E881E0937C008BE18A95F1F7E0917A0033
:10011600E064E0937A00E0917A00E071E1F3E09127
:100126007A00E061E0937A00E0917800F09179003E
:1001360021960895EF9721976DD5A0E0E0DF8F0116
:10014600ED2D16D31BD300831183FCD208F443C0D4
:1001560030E03E3140F415D31BD3E32F09D31BD334
:100166001DD33F5FF6CF30E03E3188F4232F2E318A
:1001760060F407D318D338F404D323D309D325D393
:100186002BD323D32BD32F5FF2CF3F5FEDCF2AD3D1
:10019600343120F4F6D230D33F5FFACF42D34BD37B
:1001A600AF014337E3E05E0730F4E3E7F3E0E41B37
:1001B600F50BAF0102C040E050E0FA016627772751
:1001C60034D4A0E8B8E488E490E45DD4A2E0B2E0D8
:1001D600F3D3ED93FC9338D33CD348F07394EAE021
:1001E600E71520F4EBE07E2EBB24F69A08C0B39404
:1001F600EAE0EB1520F4EBE0BE2E7724F698A2E0B9
:100206007EDF8F010937E3E01E0730F4E8E7F3E00D
:10021600E01BF10B8F0102C000E010E0ED2D1DD3B5
:10022600ADD2008311838ED280F130E03E3138F4B6
:10023600A8D2AED2E32F11D3CFD23F5FF7CF30E0B3
:100246003E3188F4232F2E3160F49BD2ACD238F4A1
:1002560098D2B7D29DD2B9D2BFD2B7D2BFD22F5F72
:10026600F2CF3F5FEDCFBED2343120F48AD2C4D272
:100276003F5FFACFD6D2AFEFB7E983E490E403D479
:10028600DAD2E0930602F0930702EDD2E2D248F00A
:100296005394EAE0E51520F4EBE05E2E9924F49AF7
:1002A60008C09394EAE0E91520F4EBE09E2E55246D
:1002B600F498ED2DDDD262D2FF93EF93A3E01FDF1A
:1002C600AF91BF91ED93FC933DD258F130E03E31B2
:1002D60038F457D25DD2E32FCBD27ED23F5FF7CF31
:1002E60030E03E3188F4232F2E3160F44AD25BD2BF
:1002F60038F447D266D24CD268D26ED266D26ED26B
:100306002F5FF2CF3F5FEDCF6DD2343120F439D27B
:1003160073D23F5FFACF85D2B1D2E0930002F09359
:100326000102BAD296D248F06394EAE0E61520F4C8
:10033600EBE06E2EAA24F79A08C0A394EAE0EA1529
:1003460020F4EBE0AE2E6624F798ED2DAAD216D255
:10035600FF93EF93A1E0D3DEAF91BF91ED93FC93B2
:10036600F1D180F130E03E3138F40BD211D2E32FD7
:1003760098D232D23F5FF7CF30E03E3188F4232F58
:100386002E3160F4FED10FD238F4FBD11AD200D24E
:100396001CD222D21AD222D22F5FF2CF3F5FEDCFEC
:1003A60021D2343120F4EDD127D23F5FFACF39D2B2
:1003B60065D2E0930402F0930502E0E0E093FA02CE
:1003C600E093FB0274D245D248F04394EAE0E41588
:1003D60020F4EBE04E2E8824F59A08C08394EAE0D8
:1003E600E81520F4EBE08E2E4424F598D394EEE144
:1003F600DE1608F0DD24F69906C0F49904C0F599D6
:1004060002C0F79B07C0449AE0E0E093F802E0934D
:10041600F90203C0A5D108F04498AAE0B0E095D24D
:1004260000D4EF9627960895E0E8E0936100E0E0B7
:10043600E0936100E8E2E4B9E0E0E5B9E0E1E7B9BC
:10044600E0E0E8B9E4E0EAB9E0E0EBB9E4BDE5BD37
:10045600E6BDE7BDE8BDE0938000E1E0E093810002
:10046600E1EC6AD1E0E0E0938700E0938600E09358
:100476008900E0938800E0938B00E0938A00E09384
:10048600B600E093B000E093B100E093B200E093D1
:10049600B300E093B400E0936E00E1E0E0936F00F8
:1004A600E0E0E0937000E0936900EDBBE093680044
:1004B600E093C100E0E8E0BFFFD1E0937F00E0E019
:1004C600E0937E00E0937C00E3E8E0937A00F4D1C9
:1004D600ECBDE0E0E093BC00789444982BDEFECFC0
:1004E600FFCFAA9326971A9310E0163028F4E8D186
:1004F600E0E0EC931F5FF9CFE985E983E885EA83BD
:10050600EF81EB8310E0EA85F0E03197A12FB0E0B0
:10051600AE17BF073CF4D4D1EC91EA93A0E0EFD03C
:100526001F5FF1CFCDD1EC91EA93A1E0E8D018811D
:100536002B9608956FD351E010E000E030E0C394AD
:10054600EC2DE150A52F3FD35E2FE8E0EC1518F413
:10055600E1E0CE2E51E0A0D1B8D1F09B02C0BCD1D3
:1005660008F001C0C1D1C3D109F0346095D1C2D120
:10057600F09B02C0B1D108F001C0B6D1B8D109F0E4
:1005860038608AD1C4D1C6D11460F09B02C0A4D110
:1005960008F001C0A9D1ABD109F030617DD1C4D139
:1005A600F09B02C099D108F001C09ED1A0D109F0FC
:1005B60000614AD18AD1F19B02C08ED108F001C0F8
:1005C60093D195D109F000623FD194D11460F19B8B
:1005D60002C082D108F001C087D189D109F0086034
:1005E60033D195D197D1F19B02C076D108F001C0E5
:1005F6007BD17DD109F0046027D196D1F19B02C051
:100606006BD108F001C070D172D109F001604FD1F1
:1006160093D1F29B02C060D108F001C065D167D1C9
:1006260009F0306244D166D1F29B02C055D108F080
:1006360001C05AD15CD109F0306439D168D16AD190
:100646001460F29B02C048D108F001C04DD14FD1D1
:1006560009F030682CD168D1F29B02C03DD108F078
:1006660001C042D144D109F03260FDD065D1F39B7F
:1006760002C032D108F001C037D139D109F031605A
:10068600F2D038D11460F39B02C026D108F001C025
:100696002BD12DD109F00064E6D039D13BD1F39BA3
:1006A60002C01AD108F001C01FD121D109F000689B
:1006B600DAD03AD1F39B02C00FD108F001C014D1B1
:1006C60016D109F00260EFEFE51B5E2FE3E0EA9337
:1006D6003A930A93A52F05DFACEFB2E03BD0A09189
:1006E600FC02B091FD02A43FE1E0BE0728F0E0E085
:1006F600E093FC02E093FD0294D226960895AA9315
:100706001A9310E0183080F4EA81E078E03811F4AA
:100716002B9A01C02B98EA81F0E0EE0FFF1FEA83C7
:100726002D9A2D981F5FEECFE981E03011F05A9A8D
:100736005A98188123960895E0938500E0E8E0939F
:1007460084000895A091FA02B091FB02A83CE0E073
:10075600BE070895ED91FD913196FE93EE930895AF
:10076600A091F802B091F902A43FE1E0BE07089516
:10077600ACEBB2E0F0E0EE0FFF1F0895EA0FFB1FAF
:100786000895E32FF0E0DE011696EE0FFF1F0895A1
:10079600F5DF0F010895AE0FBF1F089537D2D001C0
:1007A600ED93FC930895F7DF0D901C90E22FF0E097
:1007B600DE011696EE0FFF1FEEDF28D2E015F105DB
:1007C6000895E9DF4D915C91DCCFE22FF0E0DE0188
:1007D6001696EE0FFF1F0895DEDFE0CFCFDF4083D2
:1007E60051830895E0E0DE01AE5BBF4FED93ED93DC
:1007F600ED93EC933AE00895CEDF08D2DE01AE5BCE
:10080600BF4F0D901D908D919C91D0016627772743
:10081600CDD1DE01AE5BBF4FED93FD936D937C931F
:100826000895FE01EE5BFF4F01901190619170817A
:10083600F001F9D00895DF01CB01E0E0F0E060E2DD
:1008460071E46FD1B9D00895A0910202B09103026C
:100856000895AD32E1E0BE070895A0E8B2E0F0E009
:10086600EE0FFF1F0895A0910602B09107020895AA
:10087600A4E4B2E0F0E0EE0FFF1F0895A0E0B0E0C0
:1008860089EB93E400D1DF01CB01E0E0F0E060E228
:1008960076E447D191D00895A0910002B09101026B
:1008A6000895A8E0B2E0F0E0EE0FFF1F0895A091D2
:1008B6000402B09105020895E0E0E0937B000895FC
:1008C600E12FF0E0DE01119666CFE8EEF3E088D185
:1008D6002E2F109108030895A091FC02B091FD02FD
:1008E600AA3FE0E0BE070895109109030895E52F99
:1008F600E1230895E4E6F0E073D1DF01EAE0F0E0F9
:1009060082D12E2FF0E0E250FD4F10810895EAE0EB
:10091600F0E0089565D1DF01FADF75D12E2FF0E002
:10092600E250FD4F10810895F2DF6DD12E2FF0E0D9
:10093600E250FD4F10810895E8EEF3E051D12E2FDD
:10094600F0E0E250FD4F10810895109639F080EDE9
:1009560097E00197F1F7A8951197C9F708955523E0
:1009660042F4503811F4E0FF04C03196691F791F34
:100976006BF050E8572711F45F9373C05F3F31F077
:10098600660F000C57956795752F08955F930020A5
:100996000AF073C06CC050E8192E1522880F991FF3
:1009A6009527550F879550E8072E0522660F771F66
:1009B6007527550F67950895689401C0E8945F936D
:1009C600F2DF703818F07F3F08F44BC056E1571B32
:1009D600AAF4519558300EF4593030F0EFEFFFEF8E
:1009E6006FEF7FE777F91AC077275523B9F0EE0F37
:1009F600FF1F661F771F5A95D1F710C0772758300B
:100A060028F0EF2FF62F672F5850F9CF552331F0E6
:100A160076956795F795E7955A95D1F700200AF4EC
:100A2600CAD05F910895689401C0E89430976040F9
:100A36007040B1F0002426F0772312F40094BBD066
:100A4600172E7EE1112032F07A95EE0FFF1F661FFA
:100A5600111CF9CFEF2FF62F612D5F938ADF5F917F
:100A66000895EE27FF27662777275F910895EFEF12
:100A7600FFEF6FE77FEF5F910895EFEFFFEF6FE70F
:100A86007FE75F9108955F9386DF703851F3903862
:100A960041F301240894791F23F41CF300203AF350
:100AA600ECCF0F921F932F933F934F93112722273B
:100AB6009927689FA0018F9F302D410D591F6B9F6D
:100AC600300D411D591F8E9F27D0BF9F25D06A9F8D
:100AD60023D0BE9F1DD0AF9F1BD0AE9F110D291FE7
:100AE600391F491F591FE32FF42F652F522F4F919E
:100AF6003F912F911F910F9066232AF0550FEE1FFD
:100B0600FF1F661F02C073954BF229DF5F910895A0
:100B1600100D211D391F02C0200D311D491F591FFF
:100B260008955F9338DF703821F411200AF49FCFBF
:100B3600A4CF903809F495CF01240894970B1BF4A1
:100B4600D4F30020F3CF792F1F932F933F934F9326
:100B560011241127222733274427552790E2AE1761
:100B6600BF078607410730F0AE1BBF0B860B410B54
:100B7600089401C08894551F221F331F111CAA1FF9
:100B8600BB1F881F441F9A9551F7F901612D4F919C
:100B96003F912F911F91662332F0550FEE1FFF1FD5
:100BA600661F7A9543F2DBDE5F910895EA0FFB1F1D
:100BB600681F791F0895F09560957095E195FF4F30
:100BC6006F4F7F4F0895EE230E2EEA2F19F0EE0F8A
:100BD6000A94E9F708956F2F660F660B762F08952E
:100BE6000024112490E1AA0FBB1F001C111C0E1A31
:100BF6001F0A18F40E0E1F1E01C0A1609A9599F7E0
:100C0600FD01D0010895ECDFFD010895ED91FC9101
:100C1600119708955A934A933A932A931A930A93EB
:100C260008955D814C813B812A811981088108954F
:00000001FF
