:060000002EC0FECFFDCF73
:10000600FCCFFBCFFACFF9CFF8CFF7CFF6CFF5CFAE
:10001600F4CFF3CF4FC0F1CFF0CFEFCFEECFEDCF90
:10002600ECCFEBCFEACFE9CFE8CFE7CFE6CF0000C2
:1000360000000000000000000100F921EA6B335BBC
:10004600DB29FB7B0A0004003400010008023E00A5
:100056000A00090240000000F894EE27EFBBF1E029
:10006600F5BFE5BF8DE0A2E0BB27ED938A95E9F7E2
:1000760080E094E0A0E0B1E0ED930197E9F7EAE4CF
:10008600F0E085919591009761F0A591B591059065
:100096001590BF01F00105900D920197E1F7FB0164
:1000A600F0CFE0E0EEBBEFEFEDBFE4E0EEBFC0E087
:1000B600D2E01EC00A921A92FA926A937A938A93AF
:1000C6009A93AA93BA93EA93FA93EFB7EA93E3E97A
:1000D60034D192D0E991EFBFF991E991B991A99103
:1000E6009991899179916991F9901990099018954A
:1000F600E0E8E0936100E0E0E0936100E8E2E4B963
:10010600E0E0E5B9E0E1E7B9E0E0E8B9E4E0EAB962
:10011600E0E0EBB9E4BDE5BDE6BDE7BDE8BDE093D3
:100126008000E1E0E0938100E1EC07D1E0E0E093BC
:100136008700E0938600E0938900E0938800E093CF
:100146008B00E0938A00E093B600E093B000E09362
:10015600B100E093B200E093B300E093B400E09303
:100166006E00E1E0E0936F00E0E0E0937000E09362
:100176006900EDBBE0936800E093C100E0E8E0BFF2
:10018600E2D0E0937F00E0E0E0937E00E0937C0025
:10019600E3E8E0937A00D7D0ECBDE0E0E093BC0062
:1001A6007894FFCFFFCFAA9326971A9310E01630C4
:1001B60028F4CDD0E0E0EC931F5FF9CFE985E98321
:1001C600E885EA83EF81EB8310E0EA85F0E031977A
:1001D600A12FB0E0AE17BF073CF4B9D0EC91EA937B
:1001E600A0E090D01F5FF1CFB2D0EC91EA93A1E0EE
:1001F60089D018812B96089515D151E010E000E0C2
:1002060030E0E2EDF4E0E0930002F0930102EEE26A
:10021600F6E1E0930202F0930302EDE4F5E0E093E9
:100226000402F0930502E4EAF9E0E0930602F09393
:100236000702E0910802EF5FE0930802E150A52F64
:10024600D3D05E2FA0910802A93020F0E1E0E09320
:10025600080251E083D087D009F034607FD08ED079
:100266009AD009F038607AD099D09BD0A4D009F002
:10027600306174D0A2D009F00061A7D074D009F023
:100286000062A3D07BD097D009F008609ED086D0BC
:1002960088D081D009F0046098D08FD009F0016031
:1002A60099D061D009F0306295D068D074D009F049
:1002B600306490D073D075D07ED009F030688AD083
:1002C6007CD009F032608BD04ED009F0316087D0F7
:1002D60055D071D009F0006482D060D062D05BD076
:1002E60009F000687CD069D009F00260EFEFE51BE9
:1002F6005E2FE3E0EA933A930A93A52F54DF99D051
:1003060026960895AA931A9310E0183070F4EA819D
:10031600E078E03811F42B9A01C02B98EA81EE0FB1
:10032600EA832D9A2D981F5FF0CFE981E03011F016
:100336005A9A5A98188123960895E0938500E0E822
:10034600E09384000895E0E0E0937B000895E12FB8
:10035600F0E0DE011196AE0FBF1F0895A0910002D6
:10036600B09101020895E8EEF3E046D02E2FF0E0BA
:10037600E75FFD4F1081E52FE1230895E4E6F0E005
:100386003BD0DF01EAE0F0E04AD02E2FF0E0E75F55
:10039600FD4F10810895E52FE1230895EAE0F0E08E
:1003A60008952AD0DF01FADF3AD02E2FF0E0E75F7A
:1003B600FD4F108108951460EECFF0DF30D02E2F60
:1003C600F0E0E75FFD4F1081E6CFA0910202B09109
:1003D60003020895A0910402B09105020895A09128
:1003E6000602B09107020895EE230E2EEA2F19F0A9
:1003F600EE0F0A94E9F708950024112490E1AA0F5C
:10040600BB1F001C111C0E1A1F0A18F40E0E1F1E0D
:1004160001C0A1609A9599F7FD01D0010895ECDF1E
:10042600FD0108955A934A933A932A931A930A938D
:1004360008955D814C813B812A8119810881089547
:00000001FF
