:060000002BC0FECFFDCF76
:10000600FCCFFBCFFACFF9CFF8CFF7CFF6CFF5CFAE
:10001600F4CFF3CF4CC0F1CFF0CFEFCFEECFEDCF93
:10002600ECCFEBCFEACFE9CFE8CFE7CFE6CF0000C2
:100036000000000000000100F921EA6B335BDB29B8
:10004600FB7B02000A00040034000B00FE023E00A7
:100056000000F894EE27EFBBF1E0F5BFE5BF8DE0B9
:10006600A2E0BB27ED938A95E9F780E094E0A0E053
:10007600B1E0ED930197E9F7EAE4F0E08591959117
:10008600009761F0A591B59105901590BF01F0011B
:1000960005900D920197E1F7FB01F0CFE0E0EEBB92
:1000A600EFEFEDBFE4E0EEBFC0E0D2E0B9C10A92E7
:1000B6001A92FA926A937A938A939A93AA93BA9324
:1000C600EA93FA93EFB7EA93E3E935D33AD318F410
:1000D600AAEFB2E03ED32AD242D318F4A8EFB2E098
:1000E60038D3E991EFBFF991E991B991A991999125
:1000F600899179916991F990199009901895AA9327
:10010600E881E0937C008BE18A95F1F7E0917A0033
:10011600E064E0937A00E0917A00E071E1F3E09127
:100126007A00E061E0937A00E0917800F09179003E
:1001360021960895EF9721977DD5A0E0E0DF8F0106
:10014600ED2D15D31AD300831183FBD208F44AC0D0
:1001560030E03E3140F414D31AD3E32F08D31AD338
:100166001CD33F5FF6CF30E03E3188F4232F2E318B
:1001760060F406D317D338F403D322D308D324D399
:100186002AD322D32AD32F5FF2CF3F5FEDCF29D3D5
:10019600343120F4F5D22FD33F5FFACF41D3DF01BC
:1001A600CB01E0E0F0E060E271E4A6D4F0D3AF0169
:1001B6004337E3E05E0730F4E3E7F3E0E41BF50BD7
:1001C600AF0102C040E050E0FA016627772718D455
:1001D600A3E0B9EA8AE490E441D4A6E0B2E0D7D33A
:1001E600ED93FC9327D3A732E2E0BE0750F0739459
:1001F600EAE0E71528F4EBE07E2EBB24F69AF39AA4
:1002060009C0B394EAE0EB1528F4EBE0BE2E7724A0
:10021600F698F398A2E073DF8F010937E3E01E0733
:1002260030F4E8E7F3E0E01BF10B8F0102C000E0D9
:1002360010E0ED2D04D3A1D20083118382D208F4FD
:1002460044C030E03E3138F49BD2A1D2E32FF7D23E
:10025600C2D23F5FF7CF30E03E3188F4232F2E31F4
:1002660060F48ED29FD238F48BD2AAD290D2ACD27E
:10027600B2D2AAD2B2D22F5FF2CF3F5FEDCFB1D2C8
:10028600343120F47DD2B7D23F5FFACFDE01AE5BC8
:10029600BF4F0D901D908D919C91D001EAE0F0E04A
:1002A60060E070E09BD4DE01AE5BBF4FED93FD9343
:1002B6006D937C93B5D2A5E3B9EC8FE390E4CED3EE
:1002C60066D3E0930202F0930302BFD2A732E2E0C4
:1002D600BE0750F05394EAE0E51528F4EBE05E2EF5
:1002E6009924F49AF19A09C09394EAE0E91528F45E
:1002F600EBE09E2E5524F498F198ED2DABD23DD22D
:10030600FF93EF93A3E0FBDEAF91BF91ED93FC93D8
:1003160018D258F130E03E3138F432D238D2E32FD9
:1003260099D259D23F5FF7CF30E03E3188F4232F80
:100336002E3160F425D236D238F422D241D227D2D9
:1003460043D249D241D249D22F5FF2CF3F5FEDCFA0
:1003560048D2343120F414D24ED23F5FFACF60D265
:100366007FD2E0930402F0930502ED2D87D205D2E9
:10037600FF93EF93A1E0C3DEAF91BF91ED93FC93A2
:10038600E0D180F130E03E3138F4FAD100D2E32FEB
:1003960075D221D23F5FF7CF30E03E3188F4232F6C
:1003A6002E3160F4EDD1FED138F4EAD109D2EFD185
:1003B6000BD211D209D211D22F5FF2CF3F5FEDCF10
:1003C60010D2343120F4DCD116D23F5FFACF28D2D6
:1003D60047D2E0930002F0930102E0E0E093FA02D4
:1003E600E093FB02D394EEE1DE1608F0DD24F699E5
:1003F60006C0F49904C0F59902C0F79B07C0449A59
:10040600E0E0E093F802E093F90203C0A8D108F017
:100416004498AAE0B0E084D214D4EF9627960895C3
:10042600E0E8E0936100E0E0E0936100E8E2E4B92F
:10043600E0E0E5B9E0E1E7B9E0E0E8B9E4E0EAB92F
:10044600E0E0EBB9E4BDE5BDE6BDE7BDE8BDE093A0
:100456008000E1E0E0938100E1EC6DD1E0E0E09323
:100466008700E0938600E0938900E0938800E0939C
:100476008B00E0938A00E093B600E093B000E0932F
:10048600B100E093B200E093B300E093B400E093D0
:100496006E00E1E0E0936F00E0E0E0937000E0932F
:1004A6006900EDBBE0936800E093C100E0E8E0BFBF
:1004B600EBD1E0937F00E0E0E0937E00E0937C00E8
:1004C600E3E8E0937A00E0D1ECBDE0E0E093BC0025
:1004D600789444982FDEFECFFFCFAA9326971A93DF
:1004E60010E0163028F4D4D1E0E0EC931F5FF9CF8A
:1004F600E985E983E885EA83EF81EB8310E0EA8505
:10050600F0E03197A12FB0E0AE17BF073CF4C0D1A1
:10051600EC91EA93A0E0F4D01F5FF1CFB9D1EC9152
:10052600EA93A1E0EDD018812B96089583D351E08C
:1005360010E000E030E0C394EC2DE150A52F2ED35F
:100546005E2FE8E0EC1518F4E1E0CE2E51E0A5D1DF
:10055600A9D1F09B02C0AFD108F001C0B4D1B6D189
:1005660009F034609AD1B5D1F09B02C0A4D108F04D
:1005760001C0A9D1ABD109F038608FD1B7D1B9D1BB
:100586001460F09B02C097D108F001C09CD19ED1A7
:1005960009F0306182D1B7D1F09B02C08CD108F04E
:1005A60001C091D193D109F000614FD17BD1F19B6C
:1005B60002C081D108F001C086D188D109F000625D
:1005C60044D187D11460F19B02C075D108F001C0F7
:1005D6007AD17CD109F0086038D188D18AD1F19BD3
:1005E60002C069D108F001C06ED170D109F0046073
:1005F6002CD189D1F19B02C05ED108F001C063D134
:1006060065D109F0016087D1E8EEF3E0D4D22E2F50
:1006160010910803F29B02C04ED108F001C053D1DD
:1006260055D109F0306277D154D1F29B02C043D143
:1006360008F001C048D14AD109F030646CD156D1D6
:1006460058D11460F29B02C036D108F001C03BD1EC
:100656003DD109F030685FD156D1F29B02C02BD153
:1006660008F001C030D132D109F03260E3D01AD19E
:10067600F39B02C020D108F001C025D127D109F093
:100686003160D8D026D11460F39B02C014D108F093
:1006960001C019D11BD109F00064CCD027D129D1D2
:1006A600F39B02C008D108F001C00DD10FD109F0AB
:1006B6000068C0D028D1F39B02C0FDD008F001C06D
:1006C60002D104D109F00260EFEFE51B5E2FE3E0F3
:1006D600EA933A930A93A52F00DFACEFB2E039D044
:1006E600A091FC02B091FD02AA3FE0E0BE0728F00F
:1006F600E0E0E093FC02E093FD02A3D22696089583
:10070600AA931A9310E0183070F4EA81E078E03882
:1007160011F42B9A01C02B98EA81EE0FEA832D9AE9
:100726002D981F5FF0CFE981E03011F05A9A5A9860
:10073600188123960895E0938500E0E8E09384000D
:100746000895A091FA02B091FB02A639E0E0BE0737
:100756000895ED91FD913196FE93EE930895A09143
:10076600F802B091F902A43FE1E0BE070895ACEBB0
:10077600B2E0F0E0EE0FFF1F0895EA0FFB1F0895A9
:10078600E32FF0E0DE011696EE0FFF1F0895F5DF6A
:100796000F010895AE0FBF1F089548D2D001ED9303
:1007A600FC930895F7DF0D901C90E22FF0E0DE0138
:1007B6001696EE0FFF1FEEDF39D2E015F10508950C
:1007C600E9DF4D915C91DCCFE22FF0E0DE01169679
:1007D600EE0FFF1F0895DEDFE0CFCFDF40835183AA
:1007E6000895E0E0DE01AE5BBF4FED93ED93ED9330
:1007F600EC933AE00895CEDF19D2DE01AE5BBF4F2F
:100806000D901D908D919C91D00166277727B9D1C7
:10081600DE01AE5BBF4FED93FD936D937C93089520
:10082600FE01EE5BFF4F0190119061917081F00126
:10083600E5D00895A0910602B09107020895A0E8B8
:10084600B2E0F0E0EE0FFF1F0895A0910202B09112
:1008560003020895A4E4B2E0F0E0EE0FFF1F08954E
:10086600A0E0B0E089EB93E4F9D0DF01CB01E0E052
:10087600F0E060E276E440D18AD00895A8E0B2E0E4
:10088600F0E0EE0FFF1F0895E0E0E0937B0008958F
:10089600E12FF0E0DE0111967DCFA0910002B0912C
:1008A60001020895E8EEF3E086D12E2FF0E0E25043
:1008B600FD4F10810895A091FC02B091FD02AD3765
:1008C600E0E0BE070895109109030895E52FE1239E
:1008D6000895E4E6F0E06FD1DF01EAE0F0E0A3D1AD
:1008E6002E2FF0E0E250FD4F10810895EAE0F0E08F
:1008F600089561D1DF01FADF96D12E2FF0E0E250A4
:10090600FD4F10810895F2DF8ED12E2FF0E0E250D8
:10091600FD4F10810895A0910402B091050208953B
:10092600109639F080ED97E00197F1F7A8951197A9
:10093600C9F70895552342F4503811F4E0FF04C076
:100946003196691F791F6BF050E8572711F45F93B2
:1009560073C05F3F31F0660F000C57956795752F92
:1009660008955F9300200AF073C06CC050E8192EFA
:100976001522880F991F9527550F879550E8072E42
:100986000522660F771F7527550F6795089568949A
:1009960001C0E8945F93F2DF703818F07F3F08F4E7
:1009A6004BC056E1571BAAF4519558300EF45930F6
:1009B60030F0EFEFFFEF6FEF7FE777F91AC0772799
:1009C6005523B9F0EE0FFF1F661F771F5A95D1F713
:1009D60010C07727583028F0EF2FF62F672F585082
:1009E600F9CF552331F076956795F795E7955A95A2
:1009F600D1F700200AF4CAD05F910895689401C027
:100A0600E894309760407040B1F0002426F07723D8
:100A160012F40094BBD0172E7EE1112032F07A95A5
:100A2600EE0FFF1F661F111CF9CFEF2FF62F612D5A
:100A36005F938ADF5F910895EE27FF276627772762
:100A46005F910895EFEFFFEF6FE77FEF5F910895F6
:100A5600EFEFFFEF6FE77FE75F9108955F9386DF24
:100A6600703851F3903841F301240894791F23F428
:100A76001CF300203AF3ECCF0F921F932F933F9372
:100A86004F93112722279927689FA0018F9F302D0A
:100A9600410D591F6B9F300D411D591F8E9F27D049
:100AA600BF9F25D06A9F23D0BE9F1DD0AF9F1BD06E
:100AB600AE9F110D291F391F491F591FE32FF42F10
:100AC600652F522F4F913F912F911F910F906623C3
:100AD6002AF0550FEE1FFF1F661F02C073954BF2DB
:100AE60029DF5F910895100D211D391F02C0200DC9
:100AF600311D491F591F08955F9338DF703821F45F
:100B060011200AF49FCFA4CF903809F495CF012481
:100B16000894970B1BF4D4F30020F3CF792F1F937F
:100B26002F933F934F9311241127222733274427CE
:100B3600552790E2AE17BF078607410730F0AE1B78
:100B4600BF0B860B410B089401C08894551F221FCA
:100B5600331F111CAA1FBB1F881F441F9A9551F7EC
:100B6600F901612D4F913F912F911F91662332F02C
:100B7600550FEE1FFF1F661F7A9543F2DBDE5F916E
:100B86000895EA0FFB1F681F791F0895F095609579
:100B96007095E195FF4F6F4F7F4F0895EE230E2E10
:100BA600EA2F19F0EE0F0A94E9F708956F2F660FF2
:100BB600660B762F08950024112490E1AA0FBB1F1F
:100BC600001C111C0E1A1F0A18F40E0E1F1E01C05F
:100BD600A1609A9599F7FD01D00108953F934F932F
:100BE6005F93002411244427552730E2AA0FBB1F28
:100BF600881F991F001C111C441F551F0E1A1F0A1F
:100C0600460B570B28F40E0E1F1E461F571F01C01A
:100C1600A1603A9559F7FD01BC01D001CA015F9167
:100C26004F913F910895C7DFFD010895ED91FC9125
:100C3600119708955A934A933A932A931A930A93CB
:100C460008955D814C813B812A811981088108952F
:00000001FF
